{
  "contractName": "Container",
  "abi": [
    {
      "anonymous": false,
      "inputs": [
        {
          "indexed": true,
          "name": "_index",
          "type": "uint256"
        }
      ],
      "name": "LogPallet",
      "type": "event"
    },
    {
      "anonymous": false,
      "inputs": [
        {
          "indexed": true,
          "name": "_palletIndex",
          "type": "uint256"
        },
        {
          "indexed": true,
          "name": "_index",
          "type": "uint256"
        }
      ],
      "name": "LogBox",
      "type": "event"
    },
    {
      "anonymous": false,
      "inputs": [
        {
          "indexed": true,
          "name": "_boxIndex",
          "type": "uint256"
        },
        {
          "indexed": true,
          "name": "_index",
          "type": "uint256"
        },
        {
          "indexed": true,
          "name": "_id",
          "type": "uint256"
        }
      ],
      "name": "LogItem",
      "type": "event"
    },
    {
      "constant": false,
      "inputs": [],
      "name": "addPallet",
      "outputs": [
        {
          "name": "index",
          "type": "uint256"
        }
      ],
      "payable": false,
      "stateMutability": "nonpayable",
      "type": "function"
    },
    {
      "constant": false,
      "inputs": [
        {
          "name": "_palletIndex",
          "type": "uint256"
        }
      ],
      "name": "addBox",
      "outputs": [
        {
          "name": "index",
          "type": "uint256"
        }
      ],
      "payable": false,
      "stateMutability": "nonpayable",
      "type": "function"
    },
    {
      "constant": false,
      "inputs": [
        {
          "name": "_boxIndex",
          "type": "uint256"
        },
        {
          "name": "_id",
          "type": "uint256"
        }
      ],
      "name": "addItem",
      "outputs": [
        {
          "name": "index",
          "type": "uint256"
        }
      ],
      "payable": false,
      "stateMutability": "nonpayable",
      "type": "function"
    },
    {
      "constant": true,
      "inputs": [],
      "name": "getPalletsLength",
      "outputs": [
        {
          "name": "",
          "type": "uint256"
        }
      ],
      "payable": false,
      "stateMutability": "view",
      "type": "function"
    },
    {
      "constant": true,
      "inputs": [],
      "name": "getBoxesLength",
      "outputs": [
        {
          "name": "",
          "type": "uint256"
        }
      ],
      "payable": false,
      "stateMutability": "view",
      "type": "function"
    },
    {
      "constant": true,
      "inputs": [],
      "name": "getItemsLength",
      "outputs": [
        {
          "name": "",
          "type": "uint256"
        }
      ],
      "payable": false,
      "stateMutability": "view",
      "type": "function"
    },
    {
      "constant": true,
      "inputs": [
        {
          "name": "_index",
          "type": "uint256"
        }
      ],
      "name": "getPallet",
      "outputs": [
        {
          "name": "",
          "type": "uint256"
        },
        {
          "name": "",
          "type": "uint256[]"
        }
      ],
      "payable": false,
      "stateMutability": "view",
      "type": "function"
    },
    {
      "constant": true,
      "inputs": [
        {
          "name": "_index",
          "type": "uint256"
        }
      ],
      "name": "getBox",
      "outputs": [
        {
          "name": "",
          "type": "uint256"
        },
        {
          "name": "",
          "type": "uint256[]"
        }
      ],
      "payable": false,
      "stateMutability": "view",
      "type": "function"
    },
    {
      "constant": true,
      "inputs": [
        {
          "name": "_index",
          "type": "uint256"
        }
      ],
      "name": "getItem",
      "outputs": [
        {
          "name": "",
          "type": "uint256"
        },
        {
          "name": "",
          "type": "uint256"
        }
      ],
      "payable": false,
      "stateMutability": "view",
      "type": "function"
    }
  ],
  "bytecode": "0x6080604052600080556000600255600060045534801561001e57600080fd5b506108bc8061002e6000396000f3fe608060405234801561001057600080fd5b50600436106100b0576000357c0100000000000000000000000000000000000000000000000000000000900480633129e773116100835780633129e7731461015157806392c53eff1461019a578063a212523214610224578063d593b9ad14610270578063e3b14ad11461028e576100b0565b8063029b9acb146100b557806310ecd803146100d3578063194f4795146101155780632a136a1d14610133575b600080fd5b6100bd610318565b6040518082815260200191505060405180910390f35b6100ff600480360360208110156100e957600080fd5b8101908080359060200190929190505050610322565b6040518082815260200191505060405180910390f35b61011d610465565b6040518082815260200191505060405180910390f35b61013b61046f565b6040518082815260200191505060405180910390f35b61017d6004803603602081101561016757600080fd5b8101908080359060200190929190505050610554565b604051808381526020018281526020019250505060405180910390f35b6101c6600480360360208110156101b057600080fd5b81019080803590602001909291905050506105b2565b6040518083815260200180602001828103825283818151815260200191508051906020019060200280838360005b8381101561020f5780820151818401526020810190506101f4565b50505050905001935050505060405180910390f35b61025a6004803603604081101561023a57600080fd5b810190808035906020019092919080359060200190929190505050610662565b6040518082815260200191505060405180910390f35b610278610765565b6040518082815260200191505060405180910390f35b6102ba600480360360208110156102a457600080fd5b810190808035906020019092919050505061076e565b6040518083815260200180602001828103825283818151815260200191508051906020019060200280838360005b838110156103035780820151818401526020810190506102e8565b50505050905001935050505060405180910390f35b6000600254905090565b600080548210151561033357600080fd5b6003604080519081016040528084815260200160006040519080825280602002602001820160405280156103765781602001602082028038833980820191505090505b50815250908060018154018082558091505090600182039060005260206000209060020201600090919290919091506000820151816000015560208201518160010190805190602001906103cb92919061081e565b505050506001828154811015156103de57fe5b90600052602060002090600202016001016002549080600181540180825580915050906001820390600052602060002001600090919290919091505550600254905060026000815480929190600101919050555080827f086e96c2aa52875ca3010515c1d07ba2dfa681bd2b2e2aed0540560d40294f7660405160405180910390a3919050565b6000600454905090565b6000600160408051908101604052806000815260200160006040519080825280602002602001820160405280156104b55781602001602082028038833980820191505090505b508152509080600181540180825580915050906001820390600052602060002090600202016000909192909190915060008201518160000155602082015181600101908051906020019061050a92919061081e565b5050505060005490506000808154809291906001019190505550807fc8de14f0adca3bd3de76d75c4a7aac343f3437fa9dc1d09bcae86f713ea9e49c60405160405180910390a290565b6000806002548310151561056757600080fd5b60058381548110151561057657fe5b90600052602060002090600202016000015460058481548110151561059757fe5b90600052602060002090600202016001015491509150915091565b60006060600054831015156105c657600080fd5b6001838154811015156105d557fe5b9060005260206000209060020201600001546001848154811015156105f657fe5b90600052602060002090600202016001018080548060200260200160405190810160405280929190818152602001828054801561065257602002820191906000526020600020905b81548152602001906001019080831161063e575b5050505050905091509150915091565b60006002548310151561067457600080fd5b60056040805190810160405280848152602001858152509080600181540180825580915050906001820390600052602060002090600202016000909192909190915060008201518160000155602082015181600101555050506003838154811015156106dc57fe5b9060005260206000209060020201600101600454908060018154018082558091505090600182039060005260206000200160009091929091909150555060045490506004600081548092919060010191905055508181847fe8d920fb8df686294698d0ced9286f570c0dacf1a4eaca58195c2c3ab99e6f5860405160405180910390a492915050565b60008054905090565b600060606002548310151561078257600080fd5b60038381548110151561079157fe5b9060005260206000209060020201600001546003848154811015156107b257fe5b90600052602060002090600202016001018080548060200260200160405190810160405280929190818152602001828054801561080e57602002820191906000526020600020905b8154815260200190600101908083116107fa575b5050505050905091509150915091565b82805482825590600052602060002090810192821561085a579160200282015b8281111561085957825182559160200191906001019061083e565b5b509050610867919061086b565b5090565b61088d91905b80821115610889576000816000905550600101610871565b5090565b9056fea165627a7a72305820281c4375d5b9682241da7dec4b7c3b62669192fb2523c22e72b79b8dc67466fa0029",
  "source": "pragma solidity ^0.5.4;\r\n\r\n// The minimalist design of a container's smart contract.\r\n// Storage:\r\n//      Contract stores all possible items (pallet, box, item) in its own storage.\r\n//      Items are stored in simple tree structure container->pallets->boxs->items. The structure allows passing all nodes in both directions.\r\n//      It is possible to retrieve all items from a container as well as retrieve all parent for specific item up to the root element(container).\r\n//      The structure is append-only.\r\n// Events:\r\n//      The contract contains a number of events which allows tracing of contract's changing without doing any calls to the contract.\r\n// Gas usage:\r\n//      The contract optimized by storage and gas usage. In the case of internal storage usage, it spends less gas, in comparison to external contracts execution.\r\ncontract Container {\r\n    // TODO: extend by owner\r\n    struct Node {\r\n        uint256 parentId;\r\n        uint256[] childs;\r\n    }\r\n    \r\n    struct Leaf {\r\n        uint256 id;\r\n        uint256 parentId;\r\n    }\r\n\r\n    event LogPallet(uint256 indexed _index);\r\n    event LogBox(uint256 indexed _palletIndex, uint256 indexed _index);\r\n    event LogItem(uint256 indexed _boxIndex, uint256 indexed _index, uint256 indexed _id);\r\n\r\n    uint256 private palletIndex = 0;\r\n    Node[] private pallets;\r\n\r\n    uint256 private boxIndex = 0;\r\n    Node[] private boxes;\r\n\r\n    uint256 private itemIndex = 0;\r\n    Leaf[] private items;\r\n\r\n    function addPallet() public returns(uint256 index) {\r\n        pallets.push(Node({\r\n            parentId: 0,\r\n            childs: new uint256[](0)\r\n        }));\r\n        index = palletIndex;\r\n        palletIndex++;\r\n\r\n        emit LogPallet(index);\r\n    }\r\n\r\n    function addBox(uint256 _palletIndex) public returns(uint256 index) {\r\n        require(_palletIndex < palletIndex);\r\n\r\n        boxes.push(Node({\r\n            parentId: _palletIndex,\r\n            childs: new uint256[](0)\r\n        }));\r\n        pallets[_palletIndex].childs.push(boxIndex);\r\n        index = boxIndex;\r\n        boxIndex++;\r\n\r\n        emit LogBox(_palletIndex, index);\r\n    }\r\n\r\n    function addItem(uint256 _boxIndex, uint256 _id) public returns(uint256 index) {\r\n        require(_boxIndex < boxIndex);\r\n\r\n        items.push(Leaf({\r\n            id: _id,\r\n            parentId: _boxIndex\r\n        }));\r\n        boxes[_boxIndex].childs.push(itemIndex);\r\n        index = itemIndex;\r\n        itemIndex++;\r\n\r\n        emit LogItem(_boxIndex, index, _id);\r\n    }\r\n\r\n    function getPalletsLength() public view returns(uint256) {\r\n        return palletIndex;\r\n    }\r\n\r\n    function getBoxesLength() public view returns(uint256) {\r\n        return boxIndex;\r\n    }\r\n\r\n    function getItemsLength() public view returns(uint256) {\r\n        return itemIndex;\r\n    }\r\n\r\n    function getPallet(uint256 _index) public view returns(uint256, uint256[] memory) {\r\n        require(_index < palletIndex);\r\n        return (pallets[_index].parentId, pallets[_index].childs);\r\n    }\r\n\r\n    function getBox(uint256 _index) public view returns(uint256, uint256[] memory) {\r\n        require(_index < boxIndex);\r\n        return (boxes[_index].parentId, boxes[_index].childs);\r\n    }\r\n    \r\n    function getItem(uint256 _index) public view returns(uint256, uint256) {\r\n        require(_index < boxIndex);\r\n        return (items[_index].id, items[_index].parentId);\r\n    }\r\n}",
  "sourcePath": "C:/Users/SergiiBomko/Documents/GitHub/bc-community-samples/supplychain-container-app/contracts/Container.sol",
  "compiler": {
    "name": "solc",
    "version": "0.5.4+commit.9549d8ff.Emscripten.clang"
  },
  "schemaVersion": "3.0.2",
  "updatedAt": "2019-04-18T10:17:25.327Z",
  "devdoc": {
    "methods": {}
  },
  "userdoc": {
    "methods": {}
  }
}