{
  "contractName": "SendMoney",
  "abi": [
    {
      "constant": true,
      "inputs": [],
      "name": "issuer",
      "outputs": [
        {
          "name": "",
          "type": "address"
        }
      ],
      "payable": false,
      "stateMutability": "view",
      "type": "function",
      "signature": "0x1d143848"
    },
    {
      "inputs": [],
      "payable": true,
      "stateMutability": "payable",
      "type": "constructor",
      "signature": "constructor"
    },
    {
      "constant": false,
      "inputs": [
        {
          "name": "to",
          "type": "address"
        }
      ],
      "name": "issueFunds",
      "outputs": [],
      "payable": false,
      "stateMutability": "nonpayable",
      "type": "function",
      "signature": "0x19072cf3"
    }
  ],
  "bytecode": "0x6080604052336000806101000a81548173ffffffffffffffffffffffffffffffffffffffff021916908373ffffffffffffffffffffffffffffffffffffffff160217905550610189806100536000396000f3fe608060405234801561001057600080fd5b5060043610610053576000357c01000000000000000000000000000000000000000000000000000000009004806319072cf3146100585780631d1438481461009c575b600080fd5b61009a6004803603602081101561006e57600080fd5b81019080803573ffffffffffffffffffffffffffffffffffffffff1690602001909291905050506100e6565b005b6100a4610138565b604051808273ffffffffffffffffffffffffffffffffffffffff1673ffffffffffffffffffffffffffffffffffffffff16815260200191505060405180910390f35b8073ffffffffffffffffffffffffffffffffffffffff166108fc678ac7230489e800009081150290604051600060405180830381858888f19350505050158015610134573d6000803e3d6000fd5b5050565b6000809054906101000a900473ffffffffffffffffffffffffffffffffffffffff168156fea165627a7a723058202b784723b9406ab84d5641dbcf19fd8a5a5db5c1983461b7f1be98e75f6e73840029",
  "source": "pragma solidity >=0.4.21 <0.6.0;\n\ncontract SendMoney {\n  address public issuer;\n\n  constructor() public payable {\n    issuer = msg.sender;\n  }\n\n  function issueFunds(address payable to) public {\n    to.transfer((10**18) * 10);\n  }\n}",
  "sourcePath": "/home/drd/Documents/Projects/tolling-app/blockchain/contracts/SendMoney.sol",
  "compiler": {
    "name": "solc",
    "version": "0.5.2+commit.1df8f40c.Emscripten.clang"
  },
  "schemaVersion": "3.0.2",
  "updatedAt": "2019-04-29T20:54:02.045Z",
  "devdoc": {
    "methods": {}
  },
  "userdoc": {
    "methods": {}
  }
}