{
  "contractName": "HotWeatherInsurance",
  "abi": [
    {
      "constant": true,
      "inputs": [],
      "name": "minimumPremium",
      "outputs": [
        {
          "name": "",
          "type": "uint256"
        }
      ],
      "payable": false,
      "stateMutability": "view",
      "type": "function"
    },
    {
      "constant": false,
      "inputs": [
        {
          "name": "user",
          "type": "address"
        }
      ],
      "name": "payOut",
      "outputs": [],
      "payable": false,
      "stateMutability": "nonpayable",
      "type": "function"
    },
    {
      "constant": true,
      "inputs": [],
      "name": "valuationTime",
      "outputs": [
        {
          "name": "",
          "type": "uint32"
        }
      ],
      "payable": false,
      "stateMutability": "view",
      "type": "function"
    },
    {
      "constant": true,
      "inputs": [],
      "name": "forecast",
      "outputs": [
        {
          "name": "",
          "type": "int32"
        }
      ],
      "payable": false,
      "stateMutability": "view",
      "type": "function"
    },
    {
      "constant": true,
      "inputs": [
        {
          "name": "",
          "type": "uint256"
        }
      ],
      "name": "users",
      "outputs": [
        {
          "name": "",
          "type": "address"
        }
      ],
      "payable": false,
      "stateMutability": "view",
      "type": "function"
    },
    {
      "constant": true,
      "inputs": [],
      "name": "location",
      "outputs": [
        {
          "name": "",
          "type": "string"
        }
      ],
      "payable": false,
      "stateMutability": "view",
      "type": "function"
    },
    {
      "constant": true,
      "inputs": [
        {
          "name": "",
          "type": "address"
        }
      ],
      "name": "positions",
      "outputs": [
        {
          "name": "",
          "type": "uint64"
        }
      ],
      "payable": false,
      "stateMutability": "view",
      "type": "function"
    },
    {
      "constant": true,
      "inputs": [],
      "name": "operator",
      "outputs": [
        {
          "name": "",
          "type": "address"
        }
      ],
      "payable": false,
      "stateMutability": "view",
      "type": "function"
    },
    {
      "constant": true,
      "inputs": [
        {
          "name": "notional",
          "type": "uint64"
        }
      ],
      "name": "getPremium",
      "outputs": [
        {
          "name": "",
          "type": "uint256"
        }
      ],
      "payable": false,
      "stateMutability": "view",
      "type": "function"
    },
    {
      "constant": false,
      "inputs": [
        {
          "name": "notional",
          "type": "uint64"
        }
      ],
      "name": "buyInsurance",
      "outputs": [],
      "payable": true,
      "stateMutability": "payable",
      "type": "function"
    },
    {
      "constant": true,
      "inputs": [],
      "name": "owner",
      "outputs": [
        {
          "name": "",
          "type": "address"
        }
      ],
      "payable": false,
      "stateMutability": "view",
      "type": "function"
    },
    {
      "constant": true,
      "inputs": [],
      "name": "temperature",
      "outputs": [
        {
          "name": "",
          "type": "int32"
        }
      ],
      "payable": false,
      "stateMutability": "view",
      "type": "function"
    },
    {
      "constant": false,
      "inputs": [
        {
          "name": "premium",
          "type": "uint256"
        }
      ],
      "name": "setMinimumPremium",
      "outputs": [],
      "payable": false,
      "stateMutability": "nonpayable",
      "type": "function"
    },
    {
      "constant": false,
      "inputs": [
        {
          "name": "currentTime",
          "type": "uint32"
        },
        {
          "name": "currentForecast",
          "type": "int32"
        },
        {
          "name": "currentRisk",
          "type": "uint32"
        }
      ],
      "name": "updateForecast",
      "outputs": [],
      "payable": false,
      "stateMutability": "nonpayable",
      "type": "function"
    },
    {
      "constant": true,
      "inputs": [],
      "name": "expirationTime",
      "outputs": [
        {
          "name": "",
          "type": "uint32"
        }
      ],
      "payable": false,
      "stateMutability": "view",
      "type": "function"
    },
    {
      "constant": true,
      "inputs": [],
      "name": "forecastRisk",
      "outputs": [
        {
          "name": "",
          "type": "uint32"
        }
      ],
      "payable": false,
      "stateMutability": "view",
      "type": "function"
    },
    {
      "inputs": [
        {
          "name": "contractOperator",
          "type": "address"
        },
        {
          "name": "contractLocation",
          "type": "string"
        },
        {
          "name": "contractExpirationTime",
          "type": "uint32"
        },
        {
          "name": "contractTemperature",
          "type": "int32"
        },
        {
          "name": "contractPremium",
          "type": "uint256"
        }
      ],
      "payable": false,
      "stateMutability": "nonpayable",
      "type": "constructor"
    },
    {
      "anonymous": false,
      "inputs": [
        {
          "indexed": false,
          "name": "user",
          "type": "address"
        },
        {
          "indexed": false,
          "name": "notional",
          "type": "uint64"
        },
        {
          "indexed": false,
          "name": "premium",
          "type": "uint256"
        }
      ],
      "name": "InsuranceBought",
      "type": "event"
    },
    {
      "anonymous": false,
      "inputs": [
        {
          "indexed": false,
          "name": "user",
          "type": "address"
        },
        {
          "indexed": false,
          "name": "notional",
          "type": "uint64"
        },
        {
          "indexed": false,
          "name": "amount",
          "type": "uint256"
        }
      ],
      "name": "InsurancePaid",
      "type": "event"
    },
    {
      "constant": true,
      "inputs": [
        {
          "name": "notional",
          "type": "uint64"
        }
      ],
      "name": "getIntrinsicValue",
      "outputs": [
        {
          "name": "",
          "type": "uint256"
        }
      ],
      "payable": false,
      "stateMutability": "view",
      "type": "function"
    }
  ],
  "bytecode": "0x60806040523480156200001157600080fd5b50604051620015a7380380620015a7833981018060405260a08110156200003757600080fd5b810190808051906020019092919080516401000000008111156200005a57600080fd5b828101905060208101848111156200007157600080fd5b81518560018202830111640100000000821117156200008f57600080fd5b5050929190602001805190602001909291908051906020019092919080519060200190929190505050336000806101000a81548173ffffffffffffffffffffffffffffffffffffffff021916908373ffffffffffffffffffffffffffffffffffffffff160217905550336000806101000a81548173ffffffffffffffffffffffffffffffffffffffff021916908373ffffffffffffffffffffffffffffffffffffffff16021790555084600160006101000a81548173ffffffffffffffffffffffffffffffffffffffff021916908373ffffffffffffffffffffffffffffffffffffffff160217905550836002908051906020019062000191929190620001e9565b5082600360006101000a81548163ffffffff021916908363ffffffff16021790555081600360046101000a81548163ffffffff021916908360030b63ffffffff16021790555080600681905550505050505062000298565b828054600181600116156101000203166002900490600052602060002090601f016020900481019282601f106200022c57805160ff19168380011785556200025d565b828001600101855582156200025d579182015b828111156200025c5782518255916020019190600101906200023f565b5b5090506200026c919062000270565b5090565b6200029591905b808211156200029157600081600090555060010162000277565b5090565b90565b6112ff80620002a86000396000f3fe6080604052600436106100f1576000357c0100000000000000000000000000000000000000000000000000000000900463ffffffff168063087d8d01146100f65780631922ff3914610121578063330c6fff14610172578063362bc888146101a9578063365b98b2146101da578063516f279e1461025557806355f57510146102e5578063570ca7351461035e57806363a6b582146103b5578063782b34221461040e5780638b59a756146104675780638da5cb5b1461049f578063adccea12146104f6578063b2855c9d14610527578063cb65d52314610562578063da284dcc146105c0578063f318c3e9146105f7575b600080fd5b34801561010257600080fd5b5061010b61062e565b6040518082815260200191505060405180910390f35b34801561012d57600080fd5b506101706004803603602081101561014457600080fd5b81019080803573ffffffffffffffffffffffffffffffffffffffff169060200190929190505050610634565b005b34801561017e57600080fd5b50610187610949565b604051808263ffffffff1663ffffffff16815260200191505060405180910390f35b3480156101b557600080fd5b506101be61095f565b604051808260030b60030b815260200191505060405180910390f35b3480156101e657600080fd5b50610213600480360360208110156101fd57600080fd5b8101908080359060200190929190505050610972565b604051808273ffffffffffffffffffffffffffffffffffffffff1673ffffffffffffffffffffffffffffffffffffffff16815260200191505060405180910390f35b34801561026157600080fd5b5061026a6109b0565b6040518080602001828103825283818151815260200191508051906020019080838360005b838110156102aa57808201518184015260208101905061028f565b50505050905090810190601f1680156102d75780820380516001836020036101000a031916815260200191505b509250505060405180910390f35b3480156102f157600080fd5b506103346004803603602081101561030857600080fd5b81019080803573ffffffffffffffffffffffffffffffffffffffff169060200190929190505050610a4e565b604051808267ffffffffffffffff1667ffffffffffffffff16815260200191505060405180910390f35b34801561036a57600080fd5b50610373610a75565b604051808273ffffffffffffffffffffffffffffffffffffffff1673ffffffffffffffffffffffffffffffffffffffff16815260200191505060405180910390f35b3480156103c157600080fd5b506103f8600480360360208110156103d857600080fd5b81019080803567ffffffffffffffff169060200190929190505050610a9b565b6040518082815260200191505060405180910390f35b34801561041a57600080fd5b506104516004803603602081101561043157600080fd5b81019080803567ffffffffffffffff169060200190929190505050610ad7565b6040518082815260200191505060405180910390f35b61049d6004803603602081101561047d57600080fd5b81019080803567ffffffffffffffff169060200190929190505050610b46565b005b3480156104ab57600080fd5b506104b4610f7c565b604051808273ffffffffffffffffffffffffffffffffffffffff1673ffffffffffffffffffffffffffffffffffffffff16815260200191505060405180910390f35b34801561050257600080fd5b5061050b610fa1565b604051808260030b60030b815260200191505060405180910390f35b34801561053357600080fd5b506105606004803603602081101561054a57600080fd5b8101908080359060200190929190505050610fb4565b005b34801561056e57600080fd5b506105be6004803603606081101561058557600080fd5b81019080803563ffffffff169060200190929190803560030b9060200190929190803563ffffffff169060200190929190505050611120565b005b3480156105cc57600080fd5b506105d56112a7565b604051808263ffffffff1663ffffffff16815260200191505060405180910390f35b34801561060357600080fd5b5061060c6112bd565b604051808263ffffffff1663ffffffff16815260200191505060405180910390f35b60065481565b6000809054906101000a900473ffffffffffffffffffffffffffffffffffffffff1673ffffffffffffffffffffffffffffffffffffffff163373ffffffffffffffffffffffffffffffffffffffff161415156106f8576040517f08c379a000000000000000000000000000000000000000000000000000000000815260040180806020018281038252600f8152602001807f4e6f7420617574686f72697a65642e000000000000000000000000000000000081525060200191505060405180910390fd5b600360009054906101000a900463ffffffff1663ffffffff16600360089054906101000a900463ffffffff1663ffffffff16101515156107a0576040517f08c379a00000000000000000000000000000000000000000000000000000000081526004018080602001828103825260168152602001807f436f6e7472616374207374696c6c206163746976652e0000000000000000000081525060200191505060405180910390fd5b6000600460008373ffffffffffffffffffffffffffffffffffffffff1673ffffffffffffffffffffffffffffffffffffffff16815260200190815260200160002060009054906101000a900467ffffffffffffffff169050600061080382610ad7565b90506000600460008573ffffffffffffffffffffffffffffffffffffffff1673ffffffffffffffffffffffffffffffffffffffff16815260200190815260200160002060006101000a81548167ffffffffffffffff021916908367ffffffffffffffff1602179055506000811115610944578273ffffffffffffffffffffffffffffffffffffffff166108fc829081150290604051600060405180830381858888f193505050501580156108bb573d6000803e3d6000fd5b507fd2a216ab6ccfa115fec0edd2720e7d261ec3d5c4a424a81c1039255ec5bcdb21838383604051808473ffffffffffffffffffffffffffffffffffffffff1673ffffffffffffffffffffffffffffffffffffffff1681526020018367ffffffffffffffff1667ffffffffffffffff168152602001828152602001935050505060405180910390a15b505050565b600360089054906101000a900463ffffffff1681565b6003600c9054906101000a900460030b81565b60058181548110151561098157fe5b906000526020600020016000915054906101000a900473ffffffffffffffffffffffffffffffffffffffff1681565b60028054600181600116156101000203166002900480601f016020809104026020016040519081016040528092919081815260200182805460018160011615610100020316600290048015610a465780601f10610a1b57610100808354040283529160200191610a46565b820191906000526020600020905b815481529060010190602001808311610a2957829003601f168201915b505050505081565b60046020528060005260406000206000915054906101000a900467ffffffffffffffff1681565b600160009054906101000a900473ffffffffffffffffffffffffffffffffffffffff1681565b60006006548267ffffffffffffffff16600360109054906101000a900463ffffffff1663ffffffff1602610ace84610ad7565b01019050919050565b6000600360049054906101000a900460030b60030b6003600c9054906101000a900460030b60030b1315610b3c578167ffffffffffffffff16600360049054906101000a900460030b6003600c9054906101000a900460030b0360030b029050610b41565b600090505b919050565b6000600360089054906101000a900463ffffffff1663ffffffff16111515610bd6576040517f08c379a00000000000000000000000000000000000000000000000000000000081526004018080602001828103825260148152602001807f436f6e7472616374206e6f74206163746976652e00000000000000000000000081525060200191505060405180910390fd5b600360089054906101000a900463ffffffff1663ffffffff16600360009054906101000a900463ffffffff1663ffffffff1610151515610c7e576040517f08c379a00000000000000000000000000000000000000000000000000000000081526004018080602001828103825260118152602001807f436f6e747261637420657870697265642e00000000000000000000000000000081525060200191505060405180910390fd5b60008167ffffffffffffffff16111515610d26576040517f08c379a00000000000000000000000000000000000000000000000000000000081526004018080602001828103825260238152602001807f4e6f74696f6e616c206d7573742062652067726561746572207468616e207a6581526020017f726f2e000000000000000000000000000000000000000000000000000000000081525060400191505060405180910390fd5b610d2f81610a9b565b3410151515610da6576040517f08c379a00000000000000000000000000000000000000000000000000000000081526004018080602001828103825260158152602001807f496e73756666696369656e74207072656d69756d2e000000000000000000000081525060200191505060405180910390fd5b6000600460003373ffffffffffffffffffffffffffffffffffffffff1673ffffffffffffffffffffffffffffffffffffffff16815260200190815260200160002060009054906101000a900467ffffffffffffffff1667ffffffffffffffff161415610e735760053390806001815401808255809150509060018203906000526020600020016000909192909190916101000a81548173ffffffffffffffffffffffffffffffffffffffff021916908373ffffffffffffffffffffffffffffffffffffffff160217905550505b80600460003373ffffffffffffffffffffffffffffffffffffffff1673ffffffffffffffffffffffffffffffffffffffff16815260200190815260200160002060008282829054906101000a900467ffffffffffffffff160192506101000a81548167ffffffffffffffff021916908367ffffffffffffffff1602179055507fc1e6956ff2598e39050978d1d34d423e1705cba51fbd4f70c070b7760a280180338234604051808473ffffffffffffffffffffffffffffffffffffffff1673ffffffffffffffffffffffffffffffffffffffff1681526020018367ffffffffffffffff1667ffffffffffffffff168152602001828152602001935050505060405180910390a150565b6000809054906101000a900473ffffffffffffffffffffffffffffffffffffffff1681565b600360049054906101000a900460030b81565b6000809054906101000a900473ffffffffffffffffffffffffffffffffffffffff1673ffffffffffffffffffffffffffffffffffffffff163373ffffffffffffffffffffffffffffffffffffffff16141515611078576040517f08c379a000000000000000000000000000000000000000000000000000000000815260040180806020018281038252600f8152602001807f4e6f7420617574686f72697a65642e000000000000000000000000000000000081525060200191505060405180910390fd5b600081111515611116576040517f08c379a00000000000000000000000000000000000000000000000000000000081526004018080602001828103825260228152602001807f5072656d69756d206d7573742062652067726561746572207468616e207a657281526020017f6f2e00000000000000000000000000000000000000000000000000000000000081525060400191505060405180910390fd5b8060068190555050565b6000809054906101000a900473ffffffffffffffffffffffffffffffffffffffff1673ffffffffffffffffffffffffffffffffffffffff163373ffffffffffffffffffffffffffffffffffffffff1614806111c85750600160009054906101000a900473ffffffffffffffffffffffffffffffffffffffff1673ffffffffffffffffffffffffffffffffffffffff163373ffffffffffffffffffffffffffffffffffffffff16145b151561123c576040517f08c379a000000000000000000000000000000000000000000000000000000000815260040180806020018281038252600f8152602001807f4e6f7420617574686f72697a65642e000000000000000000000000000000000081525060200191505060405180910390fd5b82600360086101000a81548163ffffffff021916908363ffffffff160217905550816003600c6101000a81548163ffffffff021916908360030b63ffffffff16021790555080600360106101000a81548163ffffffff021916908363ffffffff160217905550505050565b600360009054906101000a900463ffffffff1681565b600360109054906101000a900463ffffffff168156fea165627a7a72305820bed51038af178620f2b8f91d42faab6b977506a579da912d597abc5a5a60cbae0029",
  "source": "pragma solidity ^0.5.0;\n\nimport \"./WeatherInsurance.sol\";\n\n/**\n* @title HotWeatherInsurance\n* Pays out if temperature at expiration is above contract temperature\n*/\ncontract HotWeatherInsurance is WeatherInsurance {\n   \n    /**\n    * @dev Constructor\n    */\n    constructor(address contractOperator, string memory contractLocation, uint32 contractExpirationTime, int32 contractTemperature, uint256 contractPremium) public {\n      owner = msg.sender;\n      operator = contractOperator;\n      location = contractLocation;\n      expirationTime = contractExpirationTime;\n      temperature = contractTemperature;\n      minimumPremium = contractPremium;\n    }\n\n    function getIntrinsicValue(uint64 notional) public view returns (uint256) {\n      if (forecast > temperature)\n        return uint256(forecast - temperature) * notional;\n      else\n        return 0;\n    }\n}",
  "sourcePath": "/Volumes/LACIE/Repos/bc-community-samples/weather-insurance-app/stejin/contracts/HotWeatherInsurance.sol",
  "compiler": {
    "name": "solc",
    "version": "0.5.0+commit.1d4f565a.Emscripten.clang"
  },
  "schemaVersion": "3.0.1",
  "updatedAt": "2019-04-17T04:50:51.524Z",
  "devdoc": {
    "methods": {
      "constructor": {
        "details": "Constructor"
      }
    },
    "title": "HotWeatherInsurance Pays out if temperature at expiration is above contract temperature"
  },
  "userdoc": {
    "methods": {
      "setMinimumPremium(uint256)": {
        "notice": "************ Restricted**************"
      }
    }
  }
}