{
  "contractName": "ColdWeatherInsurance",
  "abi": [
    {
      "constant": true,
      "inputs": [],
      "name": "getUsers",
      "outputs": [
        {
          "name": "",
          "type": "address[]"
        }
      ],
      "payable": false,
      "stateMutability": "view",
      "type": "function"
    },
    {
      "constant": true,
      "inputs": [],
      "name": "minimumPremium",
      "outputs": [
        {
          "name": "",
          "type": "uint256"
        }
      ],
      "payable": false,
      "stateMutability": "view",
      "type": "function"
    },
    {
      "constant": false,
      "inputs": [
        {
          "name": "user",
          "type": "address"
        }
      ],
      "name": "payOut",
      "outputs": [],
      "payable": false,
      "stateMutability": "nonpayable",
      "type": "function"
    },
    {
      "constant": true,
      "inputs": [],
      "name": "isSettled",
      "outputs": [
        {
          "name": "",
          "type": "bool"
        }
      ],
      "payable": false,
      "stateMutability": "view",
      "type": "function"
    },
    {
      "constant": true,
      "inputs": [],
      "name": "valuationTime",
      "outputs": [
        {
          "name": "",
          "type": "uint32"
        }
      ],
      "payable": false,
      "stateMutability": "view",
      "type": "function"
    },
    {
      "constant": true,
      "inputs": [],
      "name": "forecast",
      "outputs": [
        {
          "name": "",
          "type": "int32"
        }
      ],
      "payable": false,
      "stateMutability": "view",
      "type": "function"
    },
    {
      "constant": true,
      "inputs": [],
      "name": "location",
      "outputs": [
        {
          "name": "",
          "type": "string"
        }
      ],
      "payable": false,
      "stateMutability": "view",
      "type": "function"
    },
    {
      "constant": true,
      "inputs": [
        {
          "name": "",
          "type": "address"
        }
      ],
      "name": "positions",
      "outputs": [
        {
          "name": "",
          "type": "uint64"
        }
      ],
      "payable": false,
      "stateMutability": "view",
      "type": "function"
    },
    {
      "constant": true,
      "inputs": [],
      "name": "operator",
      "outputs": [
        {
          "name": "",
          "type": "address"
        }
      ],
      "payable": false,
      "stateMutability": "view",
      "type": "function"
    },
    {
      "constant": true,
      "inputs": [
        {
          "name": "notional",
          "type": "uint64"
        }
      ],
      "name": "getPremium",
      "outputs": [
        {
          "name": "",
          "type": "uint256"
        }
      ],
      "payable": false,
      "stateMutability": "view",
      "type": "function"
    },
    {
      "constant": false,
      "inputs": [],
      "name": "destroy",
      "outputs": [],
      "payable": false,
      "stateMutability": "nonpayable",
      "type": "function"
    },
    {
      "constant": false,
      "inputs": [
        {
          "name": "notional",
          "type": "uint64"
        }
      ],
      "name": "buyInsurance",
      "outputs": [],
      "payable": true,
      "stateMutability": "payable",
      "type": "function"
    },
    {
      "constant": true,
      "inputs": [],
      "name": "owner",
      "outputs": [
        {
          "name": "",
          "type": "address"
        }
      ],
      "payable": false,
      "stateMutability": "view",
      "type": "function"
    },
    {
      "constant": true,
      "inputs": [],
      "name": "temperature",
      "outputs": [
        {
          "name": "",
          "type": "int32"
        }
      ],
      "payable": false,
      "stateMutability": "view",
      "type": "function"
    },
    {
      "constant": false,
      "inputs": [
        {
          "name": "premium",
          "type": "uint256"
        }
      ],
      "name": "setMinimumPremium",
      "outputs": [],
      "payable": false,
      "stateMutability": "nonpayable",
      "type": "function"
    },
    {
      "constant": false,
      "inputs": [],
      "name": "fund",
      "outputs": [],
      "payable": true,
      "stateMutability": "payable",
      "type": "function"
    },
    {
      "constant": false,
      "inputs": [
        {
          "name": "currentTime",
          "type": "uint32"
        },
        {
          "name": "currentForecast",
          "type": "int32"
        },
        {
          "name": "currentRisk",
          "type": "uint32"
        }
      ],
      "name": "updateForecast",
      "outputs": [],
      "payable": false,
      "stateMutability": "nonpayable",
      "type": "function"
    },
    {
      "constant": true,
      "inputs": [],
      "name": "expirationTime",
      "outputs": [
        {
          "name": "",
          "type": "uint32"
        }
      ],
      "payable": false,
      "stateMutability": "view",
      "type": "function"
    },
    {
      "constant": true,
      "inputs": [],
      "name": "forecastRisk",
      "outputs": [
        {
          "name": "",
          "type": "uint32"
        }
      ],
      "payable": false,
      "stateMutability": "view",
      "type": "function"
    },
    {
      "inputs": [
        {
          "name": "contractOperator",
          "type": "address"
        },
        {
          "name": "contractLocation",
          "type": "string"
        },
        {
          "name": "contractExpirationTime",
          "type": "uint32"
        },
        {
          "name": "contractTemperature",
          "type": "int32"
        },
        {
          "name": "contractPremium",
          "type": "uint256"
        }
      ],
      "payable": false,
      "stateMutability": "nonpayable",
      "type": "constructor"
    },
    {
      "anonymous": false,
      "inputs": [
        {
          "indexed": false,
          "name": "user",
          "type": "address"
        },
        {
          "indexed": false,
          "name": "notional",
          "type": "uint64"
        },
        {
          "indexed": false,
          "name": "premium",
          "type": "uint256"
        }
      ],
      "name": "InsuranceBought",
      "type": "event"
    },
    {
      "anonymous": false,
      "inputs": [
        {
          "indexed": false,
          "name": "user",
          "type": "address"
        },
        {
          "indexed": false,
          "name": "notional",
          "type": "uint64"
        },
        {
          "indexed": false,
          "name": "amount",
          "type": "uint256"
        }
      ],
      "name": "InsurancePaid",
      "type": "event"
    },
    {
      "constant": true,
      "inputs": [
        {
          "name": "notional",
          "type": "uint64"
        }
      ],
      "name": "getIntrinsicValue",
      "outputs": [
        {
          "name": "",
          "type": "uint256"
        }
      ],
      "payable": false,
      "stateMutability": "view",
      "type": "function"
    }
  ],
  "bytecode": "0x60806040523480156200001157600080fd5b5060405162001b9438038062001b94833981018060405260a08110156200003757600080fd5b810190808051906020019092919080516401000000008111156200005a57600080fd5b828101905060208101848111156200007157600080fd5b81518560018202830111640100000000821117156200008f57600080fd5b5050929190602001805190602001909291908051906020019092919080519060200190929190505050336000806101000a81548173ffffffffffffffffffffffffffffffffffffffff021916908373ffffffffffffffffffffffffffffffffffffffff160217905550336000806101000a81548173ffffffffffffffffffffffffffffffffffffffff021916908373ffffffffffffffffffffffffffffffffffffffff16021790555084600160006101000a81548173ffffffffffffffffffffffffffffffffffffffff021916908373ffffffffffffffffffffffffffffffffffffffff160217905550836002908051906020019062000191929190620001e9565b5082600360006101000a81548163ffffffff021916908363ffffffff16021790555081600360046101000a81548163ffffffff021916908360030b63ffffffff16021790555080600581905550505050505062000298565b828054600181600116156101000203166002900490600052602060002090601f016020900481019282601f106200022c57805160ff19168380011785556200025d565b828001600101855582156200025d579182015b828111156200025c5782518255916020019190600101906200023f565b5b5090506200026c919062000270565b5090565b6200029591905b808211156200029157600081600090555060010162000277565b5090565b90565b6118ec80620002a86000396000f3fe608060405260043610610111576000357c0100000000000000000000000000000000000000000000000000000000900463ffffffff168062ce8e3e14610116578063087d8d01146101825780631922ff39146101ad5780633270bb5b146101fe578063330c6fff1461022d578063362bc88814610264578063516f279e1461029557806355f5751014610325578063570ca7351461039e57806363a6b582146103f5578063782b34221461044e57806383197ef0146104a75780638b59a756146104be5780638da5cb5b146104f6578063adccea121461054d578063b2855c9d1461057e578063b60d4288146105b9578063cb65d523146105c3578063da284dcc14610621578063f318c3e914610658575b600080fd5b34801561012257600080fd5b5061012b61068f565b6040518080602001828103825283818151815260200191508051906020019060200280838360005b8381101561016e578082015181840152602081019050610153565b505050509050019250505060405180910390f35b34801561018e57600080fd5b50610197610839565b6040518082815260200191505060405180910390f35b3480156101b957600080fd5b506101fc600480360360208110156101d057600080fd5b81019080803573ffffffffffffffffffffffffffffffffffffffff16906020019092919050505061083f565b005b34801561020a57600080fd5b50610213610b54565b604051808215151515815260200191505060405180910390f35b34801561023957600080fd5b50610242610d44565b604051808263ffffffff1663ffffffff16815260200191505060405180910390f35b34801561027057600080fd5b50610279610d5a565b604051808260030b60030b815260200191505060405180910390f35b3480156102a157600080fd5b506102aa610d6d565b6040518080602001828103825283818151815260200191508051906020019080838360005b838110156102ea5780820151818401526020810190506102cf565b50505050905090810190601f1680156103175780820380516001836020036101000a031916815260200191505b509250505060405180910390f35b34801561033157600080fd5b506103746004803603602081101561034857600080fd5b81019080803573ffffffffffffffffffffffffffffffffffffffff169060200190929190505050610e0b565b604051808267ffffffffffffffff1667ffffffffffffffff16815260200191505060405180910390f35b3480156103aa57600080fd5b506103b3610e32565b604051808273ffffffffffffffffffffffffffffffffffffffff1673ffffffffffffffffffffffffffffffffffffffff16815260200191505060405180910390f35b34801561040157600080fd5b506104386004803603602081101561041857600080fd5b81019080803567ffffffffffffffff169060200190929190505050610e58565b6040518082815260200191505060405180910390f35b34801561045a57600080fd5b506104916004803603602081101561047157600080fd5b81019080803567ffffffffffffffff169060200190929190505050610ea0565b6040518082815260200191505060405180910390f35b3480156104b357600080fd5b506104bc610f0f565b005b6104f4600480360360208110156104d457600080fd5b81019080803567ffffffffffffffff169060200190929190505050611131565b005b34801561050257600080fd5b5061050b611567565b604051808273ffffffffffffffffffffffffffffffffffffffff1673ffffffffffffffffffffffffffffffffffffffff16815260200191505060405180910390f35b34801561055957600080fd5b5061056261158c565b604051808260030b60030b815260200191505060405180910390f35b34801561058a57600080fd5b506105b7600480360360208110156105a157600080fd5b810190808035906020019092919050505061159f565b005b6105c161170b565b005b3480156105cf57600080fd5b5061061f600480360360608110156105e657600080fd5b81019080803563ffffffff169060200190929190803560030b9060200190929190803563ffffffff16906020019092919050505061170d565b005b34801561062d57600080fd5b50610636611894565b604051808263ffffffff1663ffffffff16815260200191505060405180910390f35b34801561066457600080fd5b5061066d6118aa565b604051808263ffffffff1663ffffffff16815260200191505060405180910390f35b60606000809054906101000a900473ffffffffffffffffffffffffffffffffffffffff1673ffffffffffffffffffffffffffffffffffffffff163373ffffffffffffffffffffffffffffffffffffffff1614806107395750600160009054906101000a900473ffffffffffffffffffffffffffffffffffffffff1673ffffffffffffffffffffffffffffffffffffffff163373ffffffffffffffffffffffffffffffffffffffff16145b15156107ad576040517f08c379a000000000000000000000000000000000000000000000000000000000815260040180806020018281038252600f8152602001807f4e6f7420617574686f72697a65642e000000000000000000000000000000000081525060200191505060405180910390fd5b600680548060200260200160405190810160405280929190818152602001828054801561082f57602002820191906000526020600020905b8160009054906101000a900473ffffffffffffffffffffffffffffffffffffffff1673ffffffffffffffffffffffffffffffffffffffff16815260200190600101908083116107e5575b5050505050905090565b60055481565b6000809054906101000a900473ffffffffffffffffffffffffffffffffffffffff1673ffffffffffffffffffffffffffffffffffffffff163373ffffffffffffffffffffffffffffffffffffffff16141515610903576040517f08c379a000000000000000000000000000000000000000000000000000000000815260040180806020018281038252600f8152602001807f4e6f7420617574686f72697a65642e000000000000000000000000000000000081525060200191505060405180910390fd5b600360009054906101000a900463ffffffff1663ffffffff16600360089054906101000a900463ffffffff1663ffffffff16101515156109ab576040517f08c379a00000000000000000000000000000000000000000000000000000000081526004018080602001828103825260168152602001807f436f6e7472616374207374696c6c206163746976652e0000000000000000000081525060200191505060405180910390fd5b6000600460008373ffffffffffffffffffffffffffffffffffffffff1673ffffffffffffffffffffffffffffffffffffffff16815260200190815260200160002060009054906101000a900467ffffffffffffffff1690506000610a0e82610ea0565b90506000600460008573ffffffffffffffffffffffffffffffffffffffff1673ffffffffffffffffffffffffffffffffffffffff16815260200190815260200160002060006101000a81548167ffffffffffffffff021916908367ffffffffffffffff1602179055506000811115610b4f578273ffffffffffffffffffffffffffffffffffffffff166108fc829081150290604051600060405180830381858888f19350505050158015610ac6573d6000803e3d6000fd5b507fd2a216ab6ccfa115fec0edd2720e7d261ec3d5c4a424a81c1039255ec5bcdb21838383604051808473ffffffffffffffffffffffffffffffffffffffff1673ffffffffffffffffffffffffffffffffffffffff1681526020018367ffffffffffffffff1667ffffffffffffffff168152602001828152602001935050505060405180910390a15b505050565b60008060009054906101000a900473ffffffffffffffffffffffffffffffffffffffff1673ffffffffffffffffffffffffffffffffffffffff163373ffffffffffffffffffffffffffffffffffffffff161480610bfe5750600160009054906101000a900473ffffffffffffffffffffffffffffffffffffffff1673ffffffffffffffffffffffffffffffffffffffff163373ffffffffffffffffffffffffffffffffffffffff16145b1515610c72576040517f08c379a000000000000000000000000000000000000000000000000000000000815260040180806020018281038252600f8152602001807f4e6f7420617574686f72697a65642e000000000000000000000000000000000081525060200191505060405180910390fd5b60008090505b600680549050811015610d3b57600060046000600684815481101515610c9a57fe5b9060005260206000200160009054906101000a900473ffffffffffffffffffffffffffffffffffffffff1673ffffffffffffffffffffffffffffffffffffffff1673ffffffffffffffffffffffffffffffffffffffff16815260200190815260200160002060009054906101000a900467ffffffffffffffff1667ffffffffffffffff161115610d2e576000915050610d41565b8080600101915050610c78565b50600190505b90565b600360089054906101000a900463ffffffff1681565b6003600c9054906101000a900460030b81565b60028054600181600116156101000203166002900480601f016020809104026020016040519081016040528092919081815260200182805460018160011615610100020316600290048015610e035780601f10610dd857610100808354040283529160200191610e03565b820191906000526020600020905b815481529060010190602001808311610de657829003601f168201915b505050505081565b60046020528060005260406000206000915054906101000a900467ffffffffffffffff1681565b600160009054906101000a900473ffffffffffffffffffffffffffffffffffffffff1681565b60006005546064600360109054906101000a900463ffffffff1663ffffffff168467ffffffffffffffff1602811515610e8d57fe5b04610e9784610ea0565b01019050919050565b60006003600c9054906101000a900460030b60030b600360049054906101000a900460030b60030b1315610f05578167ffffffffffffffff166003600c9054906101000a900460030b600360049054906101000a900460030b0360030b029050610f0a565b600090505b919050565b6000809054906101000a900473ffffffffffffffffffffffffffffffffffffffff1673ffffffffffffffffffffffffffffffffffffffff163373ffffffffffffffffffffffffffffffffffffffff16141515610fd3576040517f08c379a000000000000000000000000000000000000000000000000000000000815260040180806020018281038252600f8152602001807f4e6f7420617574686f72697a65642e000000000000000000000000000000000081525060200191505060405180910390fd5b600360009054906101000a900463ffffffff1663ffffffff16600360089054906101000a900463ffffffff1663ffffffff161015151561107b576040517f08c379a00000000000000000000000000000000000000000000000000000000081526004018080602001828103825260168152602001807f436f6e7472616374207374696c6c206163746976652e0000000000000000000081525060200191505060405180910390fd5b611083610b54565b15156110f7576040517f08c379a000000000000000000000000000000000000000000000000000000000815260040180806020018281038252601d8152602001807f416c6c20706f736974696f6e73206d75737420626520636c6f7365642e00000081525060200191505060405180910390fd5b6000809054906101000a900473ffffffffffffffffffffffffffffffffffffffff1673ffffffffffffffffffffffffffffffffffffffff16ff5b6000600360089054906101000a900463ffffffff1663ffffffff161115156111c1576040517f08c379a00000000000000000000000000000000000000000000000000000000081526004018080602001828103825260148152602001807f436f6e7472616374206e6f74206163746976652e00000000000000000000000081525060200191505060405180910390fd5b600360089054906101000a900463ffffffff1663ffffffff16600360009054906101000a900463ffffffff1663ffffffff1610151515611269576040517f08c379a00000000000000000000000000000000000000000000000000000000081526004018080602001828103825260118152602001807f436f6e747261637420657870697265642e00000000000000000000000000000081525060200191505060405180910390fd5b60008167ffffffffffffffff16111515611311576040517f08c379a00000000000000000000000000000000000000000000000000000000081526004018080602001828103825260238152602001807f4e6f74696f6e616c206d7573742062652067726561746572207468616e207a6581526020017f726f2e000000000000000000000000000000000000000000000000000000000081525060400191505060405180910390fd5b61131a81610e58565b3410151515611391576040517f08c379a00000000000000000000000000000000000000000000000000000000081526004018080602001828103825260158152602001807f496e73756666696369656e74207072656d69756d2e000000000000000000000081525060200191505060405180910390fd5b6000600460003373ffffffffffffffffffffffffffffffffffffffff1673ffffffffffffffffffffffffffffffffffffffff16815260200190815260200160002060009054906101000a900467ffffffffffffffff1667ffffffffffffffff16141561145e5760063390806001815401808255809150509060018203906000526020600020016000909192909190916101000a81548173ffffffffffffffffffffffffffffffffffffffff021916908373ffffffffffffffffffffffffffffffffffffffff160217905550505b80600460003373ffffffffffffffffffffffffffffffffffffffff1673ffffffffffffffffffffffffffffffffffffffff16815260200190815260200160002060008282829054906101000a900467ffffffffffffffff160192506101000a81548167ffffffffffffffff021916908367ffffffffffffffff1602179055507fc1e6956ff2598e39050978d1d34d423e1705cba51fbd4f70c070b7760a280180338234604051808473ffffffffffffffffffffffffffffffffffffffff1673ffffffffffffffffffffffffffffffffffffffff1681526020018367ffffffffffffffff1667ffffffffffffffff168152602001828152602001935050505060405180910390a150565b6000809054906101000a900473ffffffffffffffffffffffffffffffffffffffff1681565b600360049054906101000a900460030b81565b6000809054906101000a900473ffffffffffffffffffffffffffffffffffffffff1673ffffffffffffffffffffffffffffffffffffffff163373ffffffffffffffffffffffffffffffffffffffff16141515611663576040517f08c379a000000000000000000000000000000000000000000000000000000000815260040180806020018281038252600f8152602001807f4e6f7420617574686f72697a65642e000000000000000000000000000000000081525060200191505060405180910390fd5b600081111515611701576040517f08c379a00000000000000000000000000000000000000000000000000000000081526004018080602001828103825260228152602001807f5072656d69756d206d7573742062652067726561746572207468616e207a657281526020017f6f2e00000000000000000000000000000000000000000000000000000000000081525060400191505060405180910390fd5b8060058190555050565b565b6000809054906101000a900473ffffffffffffffffffffffffffffffffffffffff1673ffffffffffffffffffffffffffffffffffffffff163373ffffffffffffffffffffffffffffffffffffffff1614806117b55750600160009054906101000a900473ffffffffffffffffffffffffffffffffffffffff1673ffffffffffffffffffffffffffffffffffffffff163373ffffffffffffffffffffffffffffffffffffffff16145b1515611829576040517f08c379a000000000000000000000000000000000000000000000000000000000815260040180806020018281038252600f8152602001807f4e6f7420617574686f72697a65642e000000000000000000000000000000000081525060200191505060405180910390fd5b82600360086101000a81548163ffffffff021916908363ffffffff160217905550816003600c6101000a81548163ffffffff021916908360030b63ffffffff16021790555080600360106101000a81548163ffffffff021916908363ffffffff160217905550505050565b600360009054906101000a900463ffffffff1681565b600360109054906101000a900463ffffffff168156fea165627a7a72305820eea9a494758cc5a92ffd29dc1d8f0c5e11a78b323af3940bcbf1a59b7ec4bb8a0029",
  "source": "pragma solidity ^0.5.0;\n\nimport \"./WeatherInsurance.sol\";\n\n/**\n* @title ColdWeatherInsurance\n* Pays out if temperature at expiration is below contract temperature\n*/\ncontract ColdWeatherInsurance is WeatherInsurance {\n   \n    /**\n    * @dev Constructor\n    */\n    constructor(address contractOperator, string memory contractLocation, uint32 contractExpirationTime, int32 contractTemperature, uint256 contractPremium) public {\n      owner = msg.sender;\n      operator = contractOperator;\n      location = contractLocation;\n      expirationTime = contractExpirationTime;\n      temperature = contractTemperature;\n      minimumPremium = contractPremium;\n    }\n\n    function getIntrinsicValue(uint64 notional) public view returns (uint256) {\n      if (temperature > forecast)\n        return uint256(temperature - forecast) * notional;\n      else\n        return 0;\n    }\n}",
  "sourcePath": "/Volumes/LACIE/Repos/bc-community-samples/weather-insurance-app/stejin/Contracts/contracts/ColdWeatherInsurance.sol",
  "compiler": {
    "name": "solc",
    "version": "0.5.0+commit.1d4f565a.Emscripten.clang"
  },
  "schemaVersion": "3.0.1",
  "updatedAt": "2019-04-17T17:46:08.338Z",
  "devdoc": {
    "methods": {
      "constructor": {
        "details": "Constructor"
      }
    },
    "title": "ColdWeatherInsurance Pays out if temperature at expiration is below contract temperature"
  },
  "userdoc": {
    "methods": {
      "getUsers()": {
        "notice": "************ Restricted**************"
      }
    }
  }
}